{
  "contractName": "BlindAuction",
  "abi": [
    {
      "inputs": [
        {
          "internalType": "string",
          "name": "_name",
          "type": "string"
        },
        {
          "internalType": "string",
          "name": "_description",
          "type": "string"
        },
        {
          "internalType": "address",
          "name": "_owner",
          "type": "address"
        },
        {
          "internalType": "uint256",
          "name": "_minimum_bid",
          "type": "uint256"
        }
      ],
      "stateMutability": "nonpayable",
      "type": "constructor"
    },
    {
      "anonymous": false,
      "inputs": [
        {
          "indexed": true,
          "internalType": "address",
          "name": "_bidder",
          "type": "address"
        },
        {
          "indexed": false,
          "internalType": "bytes32",
          "name": "_hash",
          "type": "bytes32"
        }
      ],
      "name": "Bid",
      "type": "event"
    },
    {
      "inputs": [],
      "name": "biddingEndTime",
      "outputs": [
        {
          "internalType": "uint256",
          "name": "",
          "type": "uint256"
        }
      ],
      "stateMutability": "view",
      "type": "function",
      "constant": true
    },
    {
      "inputs": [],
      "name": "description",
      "outputs": [
        {
          "internalType": "string",
          "name": "",
          "type": "string"
        }
      ],
      "stateMutability": "view",
      "type": "function",
      "constant": true
    },
    {
      "inputs": [],
      "name": "minimumBid",
      "outputs": [
        {
          "internalType": "uint256",
          "name": "",
          "type": "uint256"
        }
      ],
      "stateMutability": "view",
      "type": "function",
      "constant": true
    },
    {
      "inputs": [],
      "name": "name",
      "outputs": [
        {
          "internalType": "string",
          "name": "",
          "type": "string"
        }
      ],
      "stateMutability": "view",
      "type": "function",
      "constant": true
    },
    {
      "inputs": [],
      "name": "owner",
      "outputs": [
        {
          "internalType": "address",
          "name": "",
          "type": "address"
        }
      ],
      "stateMutability": "view",
      "type": "function",
      "constant": true
    },
    {
      "inputs": [],
      "name": "revealEndTime",
      "outputs": [
        {
          "internalType": "uint256",
          "name": "",
          "type": "uint256"
        }
      ],
      "stateMutability": "view",
      "type": "function",
      "constant": true
    },
    {
      "inputs": [
        {
          "internalType": "bytes32",
          "name": "_hash",
          "type": "bytes32"
        }
      ],
      "name": "bid",
      "outputs": [],
      "stateMutability": "nonpayable",
      "type": "function"
    },
    {
      "inputs": [],
      "name": "withdraw",
      "outputs": [],
      "stateMutability": "nonpayable",
      "type": "function"
    },
    {
      "inputs": [
        {
          "internalType": "uint256",
          "name": "secret",
          "type": "uint256"
        }
      ],
      "name": "calculateHash",
      "outputs": [
        {
          "internalType": "bytes32",
          "name": "",
          "type": "bytes32"
        }
      ],
      "stateMutability": "pure",
      "type": "function",
      "constant": true
    }
  ],
  "bytecode": "0x6080604052611c2060065534801561001657600080fd5b506040516108b53803806108b58339818101604052608081101561003957600080fd5b810190808051604051939291908464010000000082111561005957600080fd5b90830190602082018581111561006e57600080fd5b825164010000000081118282018810171561008857600080fd5b82525081516020918201929091019080838360005b838110156100b557818101518382015260200161009d565b50505050905090810190601f1680156100e25780820380516001836020036101000a031916815260200191505b506040526020018051604051939291908464010000000082111561010557600080fd5b90830190602082018581111561011a57600080fd5b825164010000000081118282018810171561013457600080fd5b82525081516020918201929091019080838360005b83811015610161578181015183820152602001610149565b50505050905090810190601f16801561018e5780820380516001836020036101000a031916815260200191505b5060409081526020820151910151855191935091506101f4576040805162461bcd60e51b815260206004820152601460248201527f6e616d652063616e6e6f7420626520656d707479000000000000000000000000604482015290519081900360640190fd5b600083511161024a576040805162461bcd60e51b815260206004820152601b60248201527f6465736372697074696f6e2063616e6e6f7420626520656d7074790000000000604482015290519081900360640190fd5b835161025d9060009060208701906102ac565b5082516102719060019060208601906102ac565b50600280546001600160a01b0319166001600160a01b0393909316929092179091556003555050600654428101600481905501600555610347565b828054600181600116156101000203166002900490600052602060002090601f016020900481019282601f106102ed57805160ff191683800117855561031a565b8280016001018555821561031a579182015b8281111561031a5782518255916020019190600101906102ff565b5061032692915061032a565b5090565b61034491905b808211156103265760008155600101610330565b90565b61055f806103566000396000f3fe608060405234801561001057600080fd5b50600436106100935760003560e01c80637284e416116100665780637284e416146101565780638da5cb5b1461015e578063957bb1e014610182578063d3a863861461019f578063d49dc1d8146101a757610093565b806306fdde03146100985780631022eccb146101155780633ccfd60b1461012f578063512f4ef614610139575b600080fd5b6100a06101af565b6040805160208082528351818301528351919283929083019185019080838360005b838110156100da5781810151838201526020016100c2565b50505050905090810190601f1680156101075780820380516001836020036101000a031916815260200191505b509250505060405180910390f35b61011d61023d565b60408051918252519081900360200190f35b610137610243565b005b61011d6004803603602081101561014f57600080fd5b50356102ef565b6100a06103a7565b610166610401565b604080516001600160a01b039092168252519081900360200190f35b6101376004803603602081101561019857600080fd5b5035610410565b61011d6104df565b61011d6104e5565b6000805460408051602060026001851615610100026000190190941693909304601f810184900484028201840190925281815292918301828280156102355780601f1061020a57610100808354040283529160200191610235565b820191906000526020600020905b81548152906001019060200180831161021857829003601f168201915b505050505081565b60045481565b6004543381421061025357600080fd5b6002546001600160a01b03828116911614156102a05760405162461bcd60e51b81526004018080602001828103825260278152602001806105036027913960400191505060405180910390fd5b3360008181526007602090815260408083208381556001018390558051928352517f26896c1eaa02304ec1c7dc5b5635a82ba155b70273072c78592884758a2d39ed9281900390910190a25050565b60408051602080825281830190925260009160609190602082018180368337505050602081018481526040518251929350600292849282918083835b6020831061034a5780518252601f19909201916020918201910161032b565b51815160209384036101000a60001901801990921691161790526040519190930194509192505080830381855afa158015610389573d6000803e3d6000fd5b5050506040513d602081101561039e57600080fd5b50519392505050565b60018054604080516020600284861615610100026000190190941693909304601f810184900484028201840190925281815292918301828280156102355780601f1061020a57610100808354040283529160200191610235565b6002546001600160a01b031681565b6004543381421061042057600080fd5b6002546001600160a01b038281169116141561046d5760405162461bcd60e51b81526004018080602001828103825260278152602001806105036027913960400191505060405180910390fd5b6104756104eb565b506040805180820182528481526000602080830182815233808452600783529285902084518155905160019091015583518781529351929391927f26896c1eaa02304ec1c7dc5b5635a82ba155b70273072c78592884758a2d39ed9281900390910190a250505050565b60035481565b60055481565b60408051808201909152600080825260208201529056fe6f776e65722063616e6e6f7420706172746963697061746520696e207468652061756374696f6ea2646970667358221220957f010ee3b1df9bc27576588ad599ca3ec4e1ffc74292cde672f41debb6be6f64736f6c63430006060033",
  "source": "pragma solidity ^0.6.1;\r\n\r\ncontract BlindAuction {\r\n    string public name;\r\n    string public description;\r\n    address public owner;\r\n    uint256 public minimumBid;\r\n    uint256 public biddingEndTime;\r\n    uint256 public revealEndTime;\r\n    uint256 stageDuration = 2 hours;\r\n    \r\n    struct BlindBid {\r\n        bytes32 hash;\r\n        uint secret;\r\n    }\r\n    mapping (address => BlindBid) bids;\r\n    \r\n    modifier onlyBefore(uint _time, address _sender) { \r\n        require(now < _time);\r\n        require(_sender != owner, \"owner cannot participate in the auction\");\r\n        _;\r\n    }\r\n    modifier onlyAfter(uint _time) { \r\n        require(now > _time); \r\n        _;\r\n    }\r\n    \r\n    constructor(\r\n        string memory _name,\r\n        string memory _description,\r\n        address _owner,\r\n        uint256 _minimum_bid) public {\r\n            require(bytes(_name).length > 0, \"name cannot be empty\");\r\n            require(bytes(_description).length > 0, \"description cannot be empty\");\r\n            name = _name;\r\n            description = _description;\r\n            owner = _owner;\r\n            minimumBid = _minimum_bid;\r\n            biddingEndTime = now + stageDuration;\r\n            revealEndTime = biddingEndTime + stageDuration;\r\n    }\r\n    \r\n    function bid(bytes32 _hash) external onlyBefore(biddingEndTime, msg.sender) {\r\n        BlindBid memory _bid = BlindBid(_hash, 0);\r\n        bids[msg.sender] = _bid;\r\n        emit Bid(msg.sender, _hash);\r\n    }\r\n    \r\n    function withdraw() external onlyBefore(biddingEndTime, msg.sender) {\r\n        delete bids[msg.sender];\r\n        emit Bid(msg.sender, 0);\r\n    }\r\n\r\n    \r\n    function calculateHash(uint secret) public pure returns(bytes32){\r\n        bytes memory b = new bytes(32);\r\n        assembly { mstore(add(b, 32), secret) }\r\n        return sha256(b);\r\n    }\r\n    \r\n    event Bid(\r\n        address indexed _bidder,\r\n        bytes32 _hash\r\n    );\r\n\r\n}",
  "sourcePath": "C:\\Users\\cowBman\\OneDrive\\Documents\\ISTD\\Blockchain\\DApp\\blind_auction\\src\\contracts\\BlindAuction.sol",
  "compiler": {
    "name": "solc",
    "version": "0.6.6+commit.6c089d02.Emscripten.clang"
  },
  "schemaVersion": "3.0.23",
  "updatedAt": "2020-04-21T18:34:31.489Z",
  "networkType": "ethereum",
  "devdoc": {
    "methods": {}
  },
  "userdoc": {
    "methods": {}
  }
}