{
  "contractName": "BlindAuction",
  "abi": [
    {
      "inputs": [
        {
          "internalType": "string",
          "name": "_name",
          "type": "string"
        },
        {
          "internalType": "string",
          "name": "_description",
          "type": "string"
        },
        {
          "internalType": "address payable",
          "name": "_owner",
          "type": "address"
        },
        {
          "internalType": "uint256",
          "name": "_minimum_bid",
          "type": "uint256"
        }
      ],
      "stateMutability": "nonpayable",
      "type": "constructor"
    },
    {
      "anonymous": false,
      "inputs": [
        {
          "indexed": true,
          "internalType": "address",
          "name": "_bidder",
          "type": "address"
        },
        {
          "indexed": false,
          "internalType": "uint256",
          "name": "_value",
          "type": "uint256"
        }
      ],
      "name": "AuctionEnded",
      "type": "event"
    },
    {
      "anonymous": false,
      "inputs": [
        {
          "indexed": true,
          "internalType": "address",
          "name": "_bidder",
          "type": "address"
        },
        {
          "indexed": false,
          "internalType": "bytes32",
          "name": "_hash",
          "type": "bytes32"
        }
      ],
      "name": "Bid",
      "type": "event"
    },
    {
      "anonymous": false,
      "inputs": [
        {
          "indexed": true,
          "internalType": "address",
          "name": "_bidder",
          "type": "address"
        },
        {
          "indexed": false,
          "internalType": "uint256",
          "name": "_value",
          "type": "uint256"
        }
      ],
      "name": "Reveal",
      "type": "event"
    },
    {
      "inputs": [],
      "name": "MAX_BID",
      "outputs": [
        {
          "internalType": "uint256",
          "name": "",
          "type": "uint256"
        }
      ],
      "stateMutability": "view",
      "type": "function",
      "constant": true
    },
    {
      "inputs": [],
      "name": "biddingEndTime",
      "outputs": [
        {
          "internalType": "uint256",
          "name": "",
          "type": "uint256"
        }
      ],
      "stateMutability": "view",
      "type": "function",
      "constant": true
    },
    {
      "inputs": [],
      "name": "description",
      "outputs": [
        {
          "internalType": "string",
          "name": "",
          "type": "string"
        }
      ],
      "stateMutability": "view",
      "type": "function",
      "constant": true
    },
    {
      "inputs": [],
      "name": "ended",
      "outputs": [
        {
          "internalType": "bool",
          "name": "",
          "type": "bool"
        }
      ],
      "stateMutability": "view",
      "type": "function",
      "constant": true
    },
    {
      "inputs": [],
      "name": "highestBid",
      "outputs": [
        {
          "internalType": "uint256",
          "name": "",
          "type": "uint256"
        }
      ],
      "stateMutability": "view",
      "type": "function",
      "constant": true
    },
    {
      "inputs": [],
      "name": "highestBidder",
      "outputs": [
        {
          "internalType": "address payable",
          "name": "",
          "type": "address"
        }
      ],
      "stateMutability": "view",
      "type": "function",
      "constant": true
    },
    {
      "inputs": [],
      "name": "minimumBid",
      "outputs": [
        {
          "internalType": "uint256",
          "name": "",
          "type": "uint256"
        }
      ],
      "stateMutability": "view",
      "type": "function",
      "constant": true
    },
    {
      "inputs": [],
      "name": "name",
      "outputs": [
        {
          "internalType": "string",
          "name": "",
          "type": "string"
        }
      ],
      "stateMutability": "view",
      "type": "function",
      "constant": true
    },
    {
      "inputs": [],
      "name": "owner",
      "outputs": [
        {
          "internalType": "address payable",
          "name": "",
          "type": "address"
        }
      ],
      "stateMutability": "view",
      "type": "function",
      "constant": true
    },
    {
      "inputs": [],
      "name": "revealEndTime",
      "outputs": [
        {
          "internalType": "uint256",
          "name": "",
          "type": "uint256"
        }
      ],
      "stateMutability": "view",
      "type": "function",
      "constant": true
    },
    {
      "inputs": [
        {
          "internalType": "bytes32",
          "name": "_hash",
          "type": "bytes32"
        }
      ],
      "name": "bid",
      "outputs": [],
      "stateMutability": "nonpayable",
      "type": "function"
    },
    {
      "inputs": [],
      "name": "getBid",
      "outputs": [
        {
          "internalType": "bytes32",
          "name": "",
          "type": "bytes32"
        }
      ],
      "stateMutability": "view",
      "type": "function",
      "constant": true
    },
    {
      "inputs": [],
      "name": "withdraw",
      "outputs": [],
      "stateMutability": "nonpayable",
      "type": "function"
    },
    {
      "inputs": [
        {
          "internalType": "bytes8",
          "name": "_nonce",
          "type": "bytes8"
        }
      ],
      "name": "reveal",
      "outputs": [],
      "stateMutability": "payable",
      "type": "function",
      "payable": true
    },
    {
      "inputs": [],
      "name": "endAuction",
      "outputs": [],
      "stateMutability": "nonpayable",
      "type": "function"
    },
    {
      "inputs": [
        {
          "internalType": "uint256",
          "name": "_secret",
          "type": "uint256"
        },
        {
          "internalType": "bytes8",
          "name": "_nonce",
          "type": "bytes8"
        }
      ],
      "name": "calculateHash",
      "outputs": [
        {
          "internalType": "bytes32",
          "name": "",
          "type": "bytes32"
        }
      ],
      "stateMutability": "pure",
      "type": "function",
      "constant": true
    },
    {
      "inputs": [],
      "name": "getStage",
      "outputs": [
        {
          "internalType": "uint256",
          "name": "",
          "type": "uint256"
        }
      ],
      "stateMutability": "view",
      "type": "function",
      "constant": true
    }
  ],
  "bytecode": "0x60806040526000805460ff1916905561012c6007553480156200002157600080fd5b50604051620010f7380380620010f7833981810160405260808110156200004757600080fd5b81019080805160405193929190846401000000008211156200006857600080fd5b9083019060208201858111156200007e57600080fd5b82516401000000008111828201881017156200009957600080fd5b82525081516020918201929091019080838360005b83811015620000c8578181015183820152602001620000ae565b50505050905090810190601f168015620000f65780820380516001836020036101000a031916815260200191505b50604052602001805160405193929190846401000000008211156200011a57600080fd5b9083019060208201858111156200013057600080fd5b82516401000000008111828201881017156200014b57600080fd5b82525081516020918201929091019080838360005b838110156200017a57818101518382015260200162000160565b50505050905090810190601f168015620001a85780820380516001836020036101000a031916815260200191505b5060409081526020820151910151855191935091506200020f576040805162461bcd60e51b815260206004820152601460248201527f6e616d652063616e6e6f7420626520656d707479000000000000000000000000604482015290519081900360640190fd5b600083511162000266576040805162461bcd60e51b815260206004820152601b60248201527f6465736372697074696f6e2063616e6e6f7420626520656d7074790000000000604482015290519081900360640190fd5b6001600160c01b038110620002ad5760405162461bcd60e51b8152600401808060200182810382526030815260200180620010c76030913960400191505060405180910390fd5b8351620002c290600190602087019062000327565b508251620002d890600290602086019062000327565b50600380546001600160a01b039093166001600160a01b0319938416811790915560048290556007544281016005819055600a9182020160065580549093161790915560095550620003cc9050565b828054600181600116156101000203166002900490600052602060002090601f016020900481019282601f106200036a57805160ff19168380011785556200039a565b828001600101855582156200039a579182015b828111156200039a5782518255916020019190600101906200037d565b50620003a8929150620003ac565b5090565b620003c991905b80821115620003a85760008155600101620003b3565b90565b610ceb80620003dc6000396000f3fe6080604052600436106100fe5760003560e01c80638da5cb5b11610095578063d3a8638611610064578063d3a8638614610304578063d49dc1d814610319578063d57bde791461032e578063fcaa766414610343578063fe67a54b14610358576100fe565b80638da5cb5b1461025a57806391f901571461028b578063957bb1e0146102a0578063a24175ca146102ca576100fe565b80633ccfd60b116100d15780633ccfd60b146101f25780634d91e1f7146102095780635734e0681461021e5780637284e41614610245576100fe565b806306fdde0314610103578063099a019d1461018d5780631022eccb146101b457806312fa6feb146101c9575b600080fd5b34801561010f57600080fd5b5061011861036d565b6040805160208082528351818301528351919283929083019185019080838360005b8381101561015257818101518382015260200161013a565b50505050905090810190601f16801561017f5780820380516001836020036101000a031916815260200191505b509250505060405180910390f35b34801561019957600080fd5b506101a26103fa565b60408051918252519081900360200190f35b3480156101c057600080fd5b506101a261040e565b3480156101d557600080fd5b506101de610414565b604080519115158252519081900360200190f35b3480156101fe57600080fd5b5061020761041d565b005b34801561021557600080fd5b506101a2610520565b6102076004803603602081101561023457600080fd5b50356001600160c01b03191661052b565b34801561025157600080fd5b5061011861081c565b34801561026657600080fd5b5061026f610874565b604080516001600160a01b039092168252519081900360200190f35b34801561029757600080fd5b5061026f610883565b3480156102ac57600080fd5b50610207600480360360208110156102c357600080fd5b5035610892565b3480156102d657600080fd5b506101a2600480360360408110156102ed57600080fd5b50803590602001356001600160c01b031916610961565b34801561031057600080fd5b506101a2610a74565b34801561032557600080fd5b506101a2610a7a565b34801561033a57600080fd5b506101a2610a80565b34801561034f57600080fd5b506101a2610a86565b34801561036457600080fd5b50610207610ad2565b60018054604080516020600284861615610100026000190190941693909304601f810184900484028201840190925281815292918301828280156103f25780601f106103c7576101008083540402835291602001916103f2565b820191906000526020600020905b8154815290600101906020018083116103d557829003601f168201915b505050505081565b336000908152600860205260409020545b90565b60055481565b60005460ff1681565b6005543381421061042d57600080fd5b6003546001600160a01b038281169116141561047a5760405162461bcd60e51b8152600401808060200182810382526027815260200180610c8f6027913960400191505060405180910390fd5b336000908152600860205260409020546104d1576040805162461bcd60e51b81526020600482015260136024820152721e5bdd481a185d99481b9bdd08189a59191959606a1b604482015290519081900360640190fd5b3360008181526008602090815260408083208381556001018390558051928352517f26896c1eaa02304ec1c7dc5b5635a82ba155b70273072c78592884758a2d39ed9281900390910190a25050565b6001600160c01b0381565b6006543381421061053b57600080fd5b6003546001600160a01b03828116911614156105885760405162461bcd60e51b8152600401808060200182810382526027815260200180610c8f6027913960400191505060405180910390fd5b60055480421161059757600080fd5b336000908152600860205260409020546105e25760405162461bcd60e51b815260040180806020018281038252602d815260200180610c3b602d913960400191505060405180910390fd5b6009543411610638576040805162461bcd60e51b815260206004820152601b60248201527f796f757220626964206973206e6f74206869676820656e6f7567680000000000604482015290519081900360640190fd5b6001600160c01b033410610693576040805162461bcd60e51b815260206004820152601a60248201527f6269642065786365656473206d61782062696420616d6f756e74000000000000604482015290519081900360640190fd5b33600090815260086020526040902060010154156106ef576040805162461bcd60e51b8152602060048201526014602482015273189a5908185b1c9958591e481c995d99585b195960621b604482015290519081900360640190fd5b60006106fb3486610961565b33600090815260086020526040902054909150811461074b5760405162461bcd60e51b8152600401808060200182810382526027815260200180610c686027913960400191505060405180910390fd5b600a80546001600160a01b03166000818152600860209081526040808320600190810154346009819055338087529584902090920182905586546001600160a01b0319168517909655815190815290517ff254aace0ef98d6ac1a0d84c95648f8e3f7a1881dbb43393709ecd004b00f103929181900390910190a26003546001600160a01b03828116911614610813576040516001600160a01b0382169083156108fc029084906000818181858888f19350505050158015610811573d6000803e3d6000fd5b505b50505050505050565b6002805460408051602060018416156101000260001901909316849004601f810184900484028201840190925281815292918301828280156103f25780601f106103c7576101008083540402835291602001916103f2565b6003546001600160a01b031681565b600a546001600160a01b031681565b600554338142106108a257600080fd5b6003546001600160a01b03828116911614156108ef5760405162461bcd60e51b8152600401808060200182810382526027815260200180610c8f6027913960400191505060405180910390fd5b6108f7610c23565b506040805180820182528481526000602080830182815233808452600883529285902084518155905160019091015583518781529351929391927f26896c1eaa02304ec1c7dc5b5635a82ba155b70273072c78592884758a2d39ed9281900390910190a250505050565b60006001600160c01b0383106109be576040805162461bcd60e51b815260206004820152601a60248201527f6269642065786365656473206d61782062696420616d6f756e74000000000000604482015290519081900360640190fd5b6040805184821b60c085901c17602080830182905283518084038201815292840193849052825191936002939290918291908401908083835b60208310610a165780518252601f1990920191602091820191016109f7565b51815160209384036101000a60001901801990921691161790526040519190930194509192505080830381855afa158015610a55573d6000803e3d6000fd5b5050506040513d6020811015610a6a57600080fd5b5051949350505050565b60045481565b60065481565b60095481565b6005546000904290811015610a9f57600091505061040b565b600654811015610ab357600191505061040b565b60005460ff1615610ac857600391505061040b565b600291505061040b565b600654804211610ae157600080fd5b60005460ff1615610b31576040805162461bcd60e51b8152602060048201526015602482015274185d58dd1a5bdb88185b1c9958591e48195b991959605a1b604482015290519081900360640190fd5b6000805460ff19166001179055600354600a546001600160a01b03908116911614610bdc57600a5460095460408051918252516001600160a01b03909216917fdaec4582d5d9595688c8c98545fdd1c696d41c6aeaeb636737e84ed2f5c00eda9181900360200190a26003546009546040516001600160a01b039092169181156108fc0291906000818181858888f19350505050158015610bd6573d6000803e3d6000fd5b50610c20565b600354604080516000815290516001600160a01b03909216917fdaec4582d5d9595688c8c98545fdd1c696d41c6aeaeb636737e84ed2f5c00eda9181900360200190a25b50565b60408051808201909152600080825260208201529056fe796f75206d75737420686176652062696464656420647572696e67207468652062696464696e672073746167656569746865722062696420616d6f756e74206f72206e6f6e636520697320696e636f72726563746f776e65722063616e6e6f7420706172746963697061746520696e207468652061756374696f6ea264697066735822122052b98e27ee9c6013eb0f9a90ddc25d0a08ee5f8424667e86a16fa5128a0f25bd64736f6c634300060600336d696e696d756d206269642063616e6e6f7420626520686967686572207468616e206d61782062696420616d6f756e74",
  "source": "pragma solidity ^0.6.1;\r\n\r\ncontract BlindAuction {\r\n    // uint256 => 256 bits\r\n    // 8 bytes nonce => 64 bits\r\n    // max bid => 192 bits\r\n    uint256 constant public MAX_BID = 2**192 - 1;\r\n    bool public ended = false;\r\n    \r\n    string public name;\r\n    string public description;\r\n    address payable public owner;\r\n    uint256 public minimumBid;\r\n    uint256 public biddingEndTime;\r\n    uint256 public revealEndTime;\r\n    //uint256 stageDuration = 2 hours; // for deployment\r\n    uint256 stageDuration = 5 minutes; // for presentation\r\n    //uint256 stageDuration = 5; // for testing\r\n    \r\n    struct BlindBid {\r\n        bytes32 hash;\r\n        uint secret;\r\n    }\r\n    mapping (address => BlindBid) bids;\r\n    uint256 public highestBid;\r\n    address payable public highestBidder;\r\n    \r\n    modifier onlyBefore(uint _time, address _sender) { \r\n        require(now < _time);\r\n        require(_sender != owner, \"owner cannot participate in the auction\");\r\n        _;\r\n    }\r\n    modifier onlyAfter(uint _time) { \r\n        require(now > _time); \r\n        _;\r\n    }\r\n    \r\n    constructor(\r\n        string memory _name,\r\n        string memory _description,\r\n        address payable _owner,\r\n        uint256 _minimum_bid) public {\r\n            require(bytes(_name).length > 0, \"name cannot be empty\");\r\n            require(bytes(_description).length > 0, \"description cannot be empty\");\r\n            require(_minimum_bid < MAX_BID, \"minimum bid cannot be higher than max bid amount\");\r\n            name = _name;\r\n            description = _description;\r\n            owner = _owner;\r\n            minimumBid = _minimum_bid;\r\n            biddingEndTime = now + stageDuration;\r\n            revealEndTime = biddingEndTime + stageDuration*10;\r\n            highestBidder = _owner;\r\n            highestBid = _minimum_bid;\r\n    }\r\n    \r\n    function bid(bytes32 _hash) external onlyBefore(biddingEndTime, msg.sender) {\r\n        BlindBid memory _bid = BlindBid(_hash, 0);\r\n        bids[msg.sender] = _bid;\r\n        emit Bid(msg.sender, _hash);\r\n    }\r\n    \r\n    function getBid() external view returns(bytes32) {\r\n        return bids[msg.sender].hash;\r\n    }\r\n    \r\n    function withdraw() external onlyBefore(biddingEndTime, msg.sender) {\r\n        require(bids[msg.sender].hash != 0, \"you have not bidded\");\r\n        delete bids[msg.sender];\r\n        emit Bid(msg.sender, 0);\r\n    }\r\n    \r\n    function reveal(bytes8 _nonce) payable external \r\n        onlyBefore(revealEndTime, msg.sender)\r\n        onlyAfter(biddingEndTime) {\r\n            // checks\r\n            require(bids[msg.sender].hash != 0, \"you must have bidded during the bidding stage\");\r\n            require(msg.value > highestBid, \"your bid is not high enough\");\r\n            require(msg.value < MAX_BID, \"bid exceeds max bid amount\");\r\n            require(bids[msg.sender].secret == 0, \"bid already revealed\");\r\n            bytes32 hash = calculateHash(msg.value, _nonce);\r\n            require(hash == bids[msg.sender].hash, \"either bid amount or nonce is incorrect\");\r\n            // effects\r\n            uint256 refund = bids[highestBidder].secret;\r\n            address payable prevHighestBidder = highestBidder;\r\n            highestBid = msg.value;\r\n            bids[msg.sender].secret = msg.value;\r\n            highestBidder = msg.sender;\r\n            // interactions\r\n            emit Reveal(msg.sender, msg.value);\r\n            if (prevHighestBidder != owner) {\r\n                prevHighestBidder.transfer(refund);\r\n            }\r\n    }\r\n    \r\n    function endAuction() external onlyAfter(revealEndTime) {\r\n        require(ended == false, \"auction already ended\");\r\n        ended = true;\r\n        if (highestBidder != owner) {\r\n            emit AuctionEnded(highestBidder, highestBid);\r\n            owner.transfer(highestBid);\r\n        } else {\r\n            emit AuctionEnded(owner, 0);\r\n        }\r\n    }\r\n    \r\n    function calculateHash(uint256 _secret, bytes8 _nonce) public pure returns(bytes32){\r\n        require(_secret < MAX_BID, \"bid exceeds max bid amount\");\r\n        bytes32 concat = bytes32(_secret << 64 | uint64(_nonce));\r\n        return sha256(abi.encodePacked(concat));\r\n    }\r\n\r\n    function getStage() external view returns(uint) {\r\n        uint _time = now;\r\n        if (_time < biddingEndTime) {\r\n            return 0;\r\n        } else if (_time < revealEndTime) {\r\n            return 1;\r\n        } else if (ended) {\r\n            return 3;\r\n        } else {\r\n            return 2;\r\n        }\r\n    }\r\n    \r\n    event Bid(\r\n        address indexed _bidder,\r\n        bytes32 _hash\r\n    );\r\n    \r\n    event Reveal(\r\n        address indexed _bidder,\r\n        uint256 _value\r\n    );\r\n    \r\n    event AuctionEnded(\r\n        address indexed _bidder,\r\n        uint256 _value\r\n    );\r\n\r\n}",
  "sourcePath": "C:\\Users\\cowBman\\OneDrive\\Documents\\ISTD\\Blockchain\\DApp\\blind_auction\\src\\contracts\\BlindAuction.sol",
  "compiler": {
    "name": "solc",
    "version": "0.6.6+commit.6c089d02.Emscripten.clang"
  },
  "schemaVersion": "3.0.23",
  "updatedAt": "2020-04-24T16:27:10.622Z",
  "networkType": "ethereum",
  "devdoc": {
    "methods": {}
  },
  "userdoc": {
    "methods": {}
  }
}