{
  "contractName": "BlindAuction",
  "abi": [
    {
      "inputs": [],
      "stateMutability": "nonpayable",
      "type": "constructor"
    },
    {
      "inputs": [
        {
          "internalType": "uint256",
          "name": "_number",
          "type": "uint256"
        }
      ],
      "name": "setNumber",
      "outputs": [],
      "stateMutability": "nonpayable",
      "type": "function"
    },
    {
      "inputs": [],
      "name": "getNumber",
      "outputs": [
        {
          "internalType": "uint256",
          "name": "",
          "type": "uint256"
        }
      ],
      "stateMutability": "view",
      "type": "function",
      "constant": true
    },
    {
      "inputs": [],
      "name": "getOwner",
      "outputs": [
        {
          "internalType": "address",
          "name": "",
          "type": "address"
        }
      ],
      "stateMutability": "view",
      "type": "function",
      "constant": true
    }
  ],
  "bytecode": "0x608060405234801561001057600080fd5b50600080546001600160a01b0319163317905560e7806100316000396000f3fe6080604052348015600f57600080fd5b5060043610603c5760003560e01c80633fb5c1cb146041578063893d20e814605d578063f2c9ecd814607f575b600080fd5b605b60048036036020811015605557600080fd5b50356097565b005b6063609c565b604080516001600160a01b039092168252519081900360200190f35b608560ab565b60408051918252519081900360200190f35b600155565b6000546001600160a01b031690565b6001549056fea26469706673582212201c966aff678e2b67185ea86c21701857ce519e5a3f46fb65f984b2bc76a02e5364736f6c63430006060033",
  "source": "pragma solidity ^0.6.1;\r\n\r\ncontract BlindAuction {\r\n    address private owner;\r\n    uint private number;\r\n    \r\n    constructor() public {\r\n        owner = msg.sender;\r\n    }\r\n    \r\n    function setNumber(uint _number) public {\r\n        number = _number;\r\n    }\r\n\r\n    function getNumber() view public returns(uint) {\r\n        return(number);\r\n    }\r\n\r\n    function getOwner() view public returns(address){\r\n        return(owner);\r\n    }\r\n}",
  "sourcePath": "C:\\Users\\cowBman\\OneDrive\\Documents\\ISTD\\Blockchain\\DApp\\blind_auction\\src\\contracts\\BlindAuction.sol",
  "compiler": {
    "name": "solc",
    "version": "0.6.6+commit.6c089d02.Emscripten.clang"
  },
  "schemaVersion": "3.0.23",
  "updatedAt": "2020-04-20T15:46:49.433Z",
  "networkType": "ethereum",
  "devdoc": {
    "methods": {}
  },
  "userdoc": {
    "methods": {}
  }
}