{
  "contractName": "BlindAuction",
  "abi": [
    {
      "inputs": [
        {
          "internalType": "string",
          "name": "_name",
          "type": "string"
        },
        {
          "internalType": "string",
          "name": "_description",
          "type": "string"
        },
        {
          "internalType": "address payable",
          "name": "_owner",
          "type": "address"
        },
        {
          "internalType": "uint256",
          "name": "_minimum_bid",
          "type": "uint256"
        }
      ],
      "stateMutability": "nonpayable",
      "type": "constructor"
    },
    {
      "anonymous": false,
      "inputs": [
        {
          "indexed": true,
          "internalType": "address",
          "name": "_bidder",
          "type": "address"
        },
        {
          "indexed": false,
          "internalType": "uint256",
          "name": "_value",
          "type": "uint256"
        }
      ],
      "name": "AuctionEnded",
      "type": "event"
    },
    {
      "anonymous": false,
      "inputs": [
        {
          "indexed": true,
          "internalType": "address",
          "name": "_bidder",
          "type": "address"
        },
        {
          "indexed": false,
          "internalType": "bytes32",
          "name": "_hash",
          "type": "bytes32"
        }
      ],
      "name": "Bid",
      "type": "event"
    },
    {
      "anonymous": false,
      "inputs": [
        {
          "indexed": true,
          "internalType": "address",
          "name": "_bidder",
          "type": "address"
        },
        {
          "indexed": false,
          "internalType": "uint256",
          "name": "_value",
          "type": "uint256"
        }
      ],
      "name": "Reveal",
      "type": "event"
    },
    {
      "inputs": [],
      "name": "MAX_BID",
      "outputs": [
        {
          "internalType": "uint256",
          "name": "",
          "type": "uint256"
        }
      ],
      "stateMutability": "view",
      "type": "function",
      "constant": true
    },
    {
      "inputs": [],
      "name": "biddingEndTime",
      "outputs": [
        {
          "internalType": "uint256",
          "name": "",
          "type": "uint256"
        }
      ],
      "stateMutability": "view",
      "type": "function",
      "constant": true
    },
    {
      "inputs": [],
      "name": "description",
      "outputs": [
        {
          "internalType": "string",
          "name": "",
          "type": "string"
        }
      ],
      "stateMutability": "view",
      "type": "function",
      "constant": true
    },
    {
      "inputs": [],
      "name": "highestBidder",
      "outputs": [
        {
          "internalType": "address payable",
          "name": "",
          "type": "address"
        }
      ],
      "stateMutability": "view",
      "type": "function",
      "constant": true
    },
    {
      "inputs": [],
      "name": "minimumBid",
      "outputs": [
        {
          "internalType": "uint256",
          "name": "",
          "type": "uint256"
        }
      ],
      "stateMutability": "view",
      "type": "function",
      "constant": true
    },
    {
      "inputs": [],
      "name": "name",
      "outputs": [
        {
          "internalType": "string",
          "name": "",
          "type": "string"
        }
      ],
      "stateMutability": "view",
      "type": "function",
      "constant": true
    },
    {
      "inputs": [],
      "name": "owner",
      "outputs": [
        {
          "internalType": "address payable",
          "name": "",
          "type": "address"
        }
      ],
      "stateMutability": "view",
      "type": "function",
      "constant": true
    },
    {
      "inputs": [],
      "name": "revealEndTime",
      "outputs": [
        {
          "internalType": "uint256",
          "name": "",
          "type": "uint256"
        }
      ],
      "stateMutability": "view",
      "type": "function",
      "constant": true
    },
    {
      "inputs": [
        {
          "internalType": "bytes32",
          "name": "_hash",
          "type": "bytes32"
        }
      ],
      "name": "bid",
      "outputs": [],
      "stateMutability": "nonpayable",
      "type": "function"
    },
    {
      "inputs": [],
      "name": "getBid",
      "outputs": [
        {
          "internalType": "bytes32",
          "name": "",
          "type": "bytes32"
        }
      ],
      "stateMutability": "view",
      "type": "function",
      "constant": true
    },
    {
      "inputs": [],
      "name": "withdraw",
      "outputs": [],
      "stateMutability": "nonpayable",
      "type": "function"
    },
    {
      "inputs": [
        {
          "internalType": "bytes8",
          "name": "_nonce",
          "type": "bytes8"
        }
      ],
      "name": "reveal",
      "outputs": [],
      "stateMutability": "payable",
      "type": "function",
      "payable": true
    },
    {
      "inputs": [],
      "name": "endAuction",
      "outputs": [],
      "stateMutability": "nonpayable",
      "type": "function"
    },
    {
      "inputs": [
        {
          "internalType": "uint256",
          "name": "_secret",
          "type": "uint256"
        },
        {
          "internalType": "bytes8",
          "name": "_nonce",
          "type": "bytes8"
        }
      ],
      "name": "calculateHash",
      "outputs": [
        {
          "internalType": "bytes32",
          "name": "",
          "type": "bytes32"
        }
      ],
      "stateMutability": "pure",
      "type": "function",
      "constant": true
    }
  ],
  "bytecode": "0x60806040526000805460ff19169055600a6007553480156200002057600080fd5b5060405162000fc938038062000fc9833981810160405260808110156200004657600080fd5b81019080805160405193929190846401000000008211156200006757600080fd5b9083019060208201858111156200007d57600080fd5b82516401000000008111828201881017156200009857600080fd5b82525081516020918201929091019080838360005b83811015620000c7578181015183820152602001620000ad565b50505050905090810190601f168015620000f55780820380516001836020036101000a031916815260200191505b50604052602001805160405193929190846401000000008211156200011957600080fd5b9083019060208201858111156200012f57600080fd5b82516401000000008111828201881017156200014a57600080fd5b82525081516020918201929091019080838360005b83811015620001795781810151838201526020016200015f565b50505050905090810190601f168015620001a75780820380516001836020036101000a031916815260200191505b5060409081526020820151910151855191935091506200020e576040805162461bcd60e51b815260206004820152601460248201527f6e616d652063616e6e6f7420626520656d707479000000000000000000000000604482015290519081900360640190fd5b600083511162000265576040805162461bcd60e51b815260206004820152601b60248201527f6465736372697074696f6e2063616e6e6f7420626520656d7074790000000000604482015290519081900360640190fd5b6001600160c01b038110620002ac5760405162461bcd60e51b815260040180806020018281038252603081526020018062000f996030913960400191505060405180910390fd5b8351620002c190600190602087019062000320565b508251620002d790600290602086019062000320565b50600380546001600160a01b039093166001600160a01b03199384168117909155600491909155600754428101600581905501600655600a805490921617905550620003c59050565b828054600181600116156101000203166002900490600052602060002090601f016020900481019282601f106200036357805160ff191683800117855562000393565b8280016001018555821562000393579182015b828111156200039357825182559160200191906001019062000376565b50620003a1929150620003a5565b5090565b620003c291905b80821115620003a15760008155600101620003ac565b90565b610bc480620003d56000396000f3fe6080604052600436106100dd5760003560e01c80638da5cb5b1161007f578063a24175ca11610059578063a24175ca14610280578063d3a86386146102ba578063d49dc1d8146102cf578063fe67a54b146102e4576100dd565b80638da5cb5b1461021057806391f9015714610241578063957bb1e014610256576100dd565b80633ccfd60b116100bb5780633ccfd60b146101a85780634d91e1f7146101bf5780635734e068146101d45780637284e416146101fb576100dd565b806306fdde03146100e2578063099a019d1461016c5780631022eccb14610193575b600080fd5b3480156100ee57600080fd5b506100f76102f9565b6040805160208082528351818301528351919283929083019185019080838360005b83811015610131578181015183820152602001610119565b50505050905090810190601f16801561015e5780820380516001836020036101000a031916815260200191505b509250505060405180910390f35b34801561017857600080fd5b50610181610386565b60408051918252519081900360200190f35b34801561019f57600080fd5b50610181610399565b3480156101b457600080fd5b506101bd61039f565b005b3480156101cb57600080fd5b5061018161044b565b6101bd600480360360208110156101ea57600080fd5b50356001600160c01b031916610456565b34801561020757600080fd5b506100f7610747565b34801561021c57600080fd5b5061022561079f565b604080516001600160a01b039092168252519081900360200190f35b34801561024d57600080fd5b506102256107ae565b34801561026257600080fd5b506101bd6004803603602081101561027957600080fd5b50356107bd565b34801561028c57600080fd5b50610181600480360360408110156102a357600080fd5b50803590602001356001600160c01b03191661088c565b3480156102c657600080fd5b5061018161099f565b3480156102db57600080fd5b506101816109a5565b3480156102f057600080fd5b506101bd6109ab565b60018054604080516020600284861615610100026000190190941693909304601f8101849004840282018401909252818152929183018282801561037e5780601f106103535761010080835404028352916020019161037e565b820191906000526020600020905b81548152906001019060200180831161036157829003601f168201915b505050505081565b3360009081526008602052604090205490565b60055481565b600554338142106103af57600080fd5b6003546001600160a01b03828116911614156103fc5760405162461bcd60e51b8152600401808060200182810382526027815260200180610b686027913960400191505060405180910390fd5b3360008181526008602090815260408083208381556001018390558051928352517f26896c1eaa02304ec1c7dc5b5635a82ba155b70273072c78592884758a2d39ed9281900390910190a25050565b6001600160c01b0381565b6006543381421061046657600080fd5b6003546001600160a01b03828116911614156104b35760405162461bcd60e51b8152600401808060200182810382526027815260200180610b686027913960400191505060405180910390fd5b6005548042116104c257600080fd5b3360009081526008602052604090205461050d5760405162461bcd60e51b815260040180806020018281038252602d815260200180610b14602d913960400191505060405180910390fd5b6004543411610563576040805162461bcd60e51b815260206004820152601b60248201527f796f757220626964206973206e6f74206869676820656e6f7567680000000000604482015290519081900360640190fd5b6001600160c01b0334106105be576040805162461bcd60e51b815260206004820152601a60248201527f6269642065786365656473206d61782062696420616d6f756e74000000000000604482015290519081900360640190fd5b336000908152600860205260409020600101541561061a576040805162461bcd60e51b8152602060048201526014602482015273189a5908185b1c9958591e481c995d99585b195960621b604482015290519081900360640190fd5b6000610626348661088c565b3360009081526008602052604090205490915081146106765760405162461bcd60e51b8152600401808060200182810382526027815260200180610b416027913960400191505060405180910390fd5b600a80546001600160a01b03166000818152600860209081526040808320600190810154346004819055338087529584902090920182905586546001600160a01b0319168517909655815190815290517ff254aace0ef98d6ac1a0d84c95648f8e3f7a1881dbb43393709ecd004b00f103929181900390910190a26003546001600160a01b0382811691161461073e576040516001600160a01b0382169083156108fc029084906000818181858888f1935050505015801561073c573d6000803e3d6000fd5b505b50505050505050565b6002805460408051602060018416156101000260001901909316849004601f8101849004840282018401909252818152929183018282801561037e5780601f106103535761010080835404028352916020019161037e565b6003546001600160a01b031681565b600a546001600160a01b031681565b600554338142106107cd57600080fd5b6003546001600160a01b038281169116141561081a5760405162461bcd60e51b8152600401808060200182810382526027815260200180610b686027913960400191505060405180910390fd5b610822610afc565b506040805180820182528481526000602080830182815233808452600883529285902084518155905160019091015583518781529351929391927f26896c1eaa02304ec1c7dc5b5635a82ba155b70273072c78592884758a2d39ed9281900390910190a250505050565b60006001600160c01b0383106108e9576040805162461bcd60e51b815260206004820152601a60248201527f6269642065786365656473206d61782062696420616d6f756e74000000000000604482015290519081900360640190fd5b6040805184821b60c085901c17602080830182905283518084038201815292840193849052825191936002939290918291908401908083835b602083106109415780518252601f199092019160209182019101610922565b51815160209384036101000a60001901801990921691161790526040519190930194509192505080830381855afa158015610980573d6000803e3d6000fd5b5050506040513d602081101561099557600080fd5b5051949350505050565b60045481565b60065481565b6006548042116109ba57600080fd5b60005460ff1615610a0a576040805162461bcd60e51b8152602060048201526015602482015274185d58dd1a5bdb88185b1c9958591e48195b991959605a1b604482015290519081900360640190fd5b6000805460ff19166001179055600354600a546001600160a01b03908116911614610ab557600a5460045460408051918252516001600160a01b03909216917fdaec4582d5d9595688c8c98545fdd1c696d41c6aeaeb636737e84ed2f5c00eda9181900360200190a26003546004546040516001600160a01b039092169181156108fc0291906000818181858888f19350505050158015610aaf573d6000803e3d6000fd5b50610af9565b600354604080516000815290516001600160a01b03909216917fdaec4582d5d9595688c8c98545fdd1c696d41c6aeaeb636737e84ed2f5c00eda9181900360200190a25b50565b60408051808201909152600080825260208201529056fe796f75206d75737420686176652062696464656420647572696e67207468652062696464696e672073746167656569746865722062696420616d6f756e74206f72206e6f6e636520697320696e636f72726563746f776e65722063616e6e6f7420706172746963697061746520696e207468652061756374696f6ea264697066735822122076e5f95931f15d23837ab98b18244939c6a27ff2e4cc8401d327a4c69f6c4ca064736f6c634300060600336d696e696d756d206269642063616e6e6f7420626520686967686572207468616e206d61782062696420616d6f756e74",
  "source": "pragma solidity ^0.6.1;\r\n\r\ncontract BlindAuction {\r\n    // uint256 => 256 bits\r\n    // 8 bytes nonce => 64 bits\r\n    // max bid => 192 bits\r\n    uint256 constant public MAX_BID = 2**192 - 1;\r\n    bool ended = false;\r\n    \r\n    string public name;\r\n    string public description;\r\n    address payable public owner;\r\n    uint256 public minimumBid;\r\n    uint256 public biddingEndTime;\r\n    uint256 public revealEndTime;\r\n    //uint256 stageDuration = 2 hours;\r\n    uint256 stageDuration = 10; // for testing\r\n    \r\n    struct BlindBid {\r\n        bytes32 hash;\r\n        uint secret;\r\n    }\r\n    mapping (address => BlindBid) bids;\r\n    // Allowed withdrawals of previous bids\r\n    mapping (address => uint) pendingReturns;\r\n    address payable public highestBidder;\r\n    \r\n    modifier onlyBefore(uint _time, address _sender) { \r\n        require(now < _time);\r\n        require(_sender != owner, \"owner cannot participate in the auction\");\r\n        _;\r\n    }\r\n    modifier onlyAfter(uint _time) { \r\n        require(now > _time); \r\n        _;\r\n    }\r\n    \r\n    constructor(\r\n        string memory _name,\r\n        string memory _description,\r\n        address payable _owner,\r\n        uint256 _minimum_bid) public {\r\n            require(bytes(_name).length > 0, \"name cannot be empty\");\r\n            require(bytes(_description).length > 0, \"description cannot be empty\");\r\n            require(_minimum_bid < MAX_BID, \"minimum bid cannot be higher than max bid amount\");\r\n            name = _name;\r\n            description = _description;\r\n            owner = _owner;\r\n            minimumBid = _minimum_bid;\r\n            biddingEndTime = now + stageDuration;\r\n            revealEndTime = biddingEndTime + stageDuration;\r\n            highestBidder = _owner;\r\n    }\r\n    \r\n    function bid(bytes32 _hash) external onlyBefore(biddingEndTime, msg.sender) {\r\n        BlindBid memory _bid = BlindBid(_hash, 0);\r\n        bids[msg.sender] = _bid;\r\n        emit Bid(msg.sender, _hash);\r\n    }\r\n    \r\n    function getBid() external view returns(bytes32) {\r\n        return bids[msg.sender].hash;\r\n    }\r\n    \r\n    function withdraw() external onlyBefore(biddingEndTime, msg.sender) {\r\n        delete bids[msg.sender];\r\n        emit Bid(msg.sender, 0);\r\n    }\r\n    \r\n    function reveal(bytes8 _nonce) payable external \r\n        onlyBefore(revealEndTime, msg.sender)\r\n        onlyAfter(biddingEndTime) {\r\n            // checks\r\n            require(bids[msg.sender].hash != 0, \"you must have bidded during the bidding stage\");\r\n            require(msg.value > minimumBid, \"your bid is not high enough\");\r\n            require(msg.value < MAX_BID, \"bid exceeds max bid amount\");\r\n            require(bids[msg.sender].secret == 0, \"bid already revealed\");\r\n            bytes32 hash = calculateHash(msg.value, _nonce);\r\n            require(hash == bids[msg.sender].hash, \"either bid amount or nonce is incorrect\");\r\n            // effects\r\n            uint256 refund = bids[highestBidder].secret;\r\n            address payable prevHighestBidder = highestBidder;\r\n            minimumBid = msg.value;\r\n            bids[msg.sender].secret = msg.value;\r\n            highestBidder = msg.sender;\r\n            // interactions\r\n            emit Reveal(msg.sender, msg.value);\r\n            if (prevHighestBidder != owner) {\r\n                prevHighestBidder.transfer(refund);\r\n            }\r\n    }\r\n    \r\n    function endAuction() external onlyAfter(revealEndTime) {\r\n        require(ended == false, \"auction already ended\");\r\n        ended = true;\r\n        if (highestBidder != owner) {\r\n            emit AuctionEnded(highestBidder, minimumBid);\r\n            owner.transfer(minimumBid);\r\n        } else {\r\n            emit AuctionEnded(owner, 0);\r\n        }\r\n    }\r\n    \r\n    function calculateHash(uint256 _secret, bytes8 _nonce) public pure returns(bytes32){\r\n        require(_secret < MAX_BID, \"bid exceeds max bid amount\");\r\n        bytes32 concat = bytes32(_secret << 64 | uint64(_nonce));\r\n        return sha256(abi.encodePacked(concat));\r\n    }\r\n    \r\n    event Bid(\r\n        address indexed _bidder,\r\n        bytes32 _hash\r\n    );\r\n    \r\n    event Reveal(\r\n        address indexed _bidder,\r\n        uint256 _value\r\n    );\r\n    \r\n    event AuctionEnded(\r\n        address indexed _bidder,\r\n        uint256 _value\r\n    );\r\n\r\n}",
  "sourcePath": "C:\\Users\\cowBman\\OneDrive\\Documents\\ISTD\\Blockchain\\DApp\\blind_auction\\src\\contracts\\BlindAuction.sol",
  "compiler": {
    "name": "solc",
    "version": "0.6.6+commit.6c089d02.Emscripten.clang"
  },
  "schemaVersion": "3.0.23",
  "updatedAt": "2020-04-22T13:35:44.903Z",
  "networkType": "ethereum",
  "devdoc": {
    "methods": {}
  },
  "userdoc": {
    "methods": {}
  }
}