{
  "contractName": "BlindAuction",
  "abi": [
    {
      "inputs": [
        {
          "internalType": "string",
          "name": "_name",
          "type": "string"
        },
        {
          "internalType": "string",
          "name": "_description",
          "type": "string"
        },
        {
          "internalType": "address payable",
          "name": "_owner",
          "type": "address"
        },
        {
          "internalType": "uint256",
          "name": "_minimum_bid",
          "type": "uint256"
        }
      ],
      "stateMutability": "nonpayable",
      "type": "constructor"
    },
    {
      "anonymous": false,
      "inputs": [
        {
          "indexed": true,
          "internalType": "address",
          "name": "_bidder",
          "type": "address"
        },
        {
          "indexed": false,
          "internalType": "uint256",
          "name": "_value",
          "type": "uint256"
        }
      ],
      "name": "AuctionEnded",
      "type": "event"
    },
    {
      "anonymous": false,
      "inputs": [
        {
          "indexed": true,
          "internalType": "address",
          "name": "_bidder",
          "type": "address"
        },
        {
          "indexed": false,
          "internalType": "bytes32",
          "name": "_hash",
          "type": "bytes32"
        }
      ],
      "name": "Bid",
      "type": "event"
    },
    {
      "anonymous": false,
      "inputs": [
        {
          "indexed": true,
          "internalType": "address",
          "name": "_bidder",
          "type": "address"
        },
        {
          "indexed": false,
          "internalType": "uint256",
          "name": "_value",
          "type": "uint256"
        }
      ],
      "name": "Reveal",
      "type": "event"
    },
    {
      "inputs": [],
      "name": "MAX_BID",
      "outputs": [
        {
          "internalType": "uint256",
          "name": "",
          "type": "uint256"
        }
      ],
      "stateMutability": "view",
      "type": "function",
      "constant": true
    },
    {
      "inputs": [],
      "name": "biddingEndTime",
      "outputs": [
        {
          "internalType": "uint256",
          "name": "",
          "type": "uint256"
        }
      ],
      "stateMutability": "view",
      "type": "function",
      "constant": true
    },
    {
      "inputs": [],
      "name": "description",
      "outputs": [
        {
          "internalType": "string",
          "name": "",
          "type": "string"
        }
      ],
      "stateMutability": "view",
      "type": "function",
      "constant": true
    },
    {
      "inputs": [],
      "name": "ended",
      "outputs": [
        {
          "internalType": "bool",
          "name": "",
          "type": "bool"
        }
      ],
      "stateMutability": "view",
      "type": "function",
      "constant": true
    },
    {
      "inputs": [],
      "name": "highestBidder",
      "outputs": [
        {
          "internalType": "address payable",
          "name": "",
          "type": "address"
        }
      ],
      "stateMutability": "view",
      "type": "function",
      "constant": true
    },
    {
      "inputs": [],
      "name": "minimumBid",
      "outputs": [
        {
          "internalType": "uint256",
          "name": "",
          "type": "uint256"
        }
      ],
      "stateMutability": "view",
      "type": "function",
      "constant": true
    },
    {
      "inputs": [],
      "name": "name",
      "outputs": [
        {
          "internalType": "string",
          "name": "",
          "type": "string"
        }
      ],
      "stateMutability": "view",
      "type": "function",
      "constant": true
    },
    {
      "inputs": [],
      "name": "owner",
      "outputs": [
        {
          "internalType": "address payable",
          "name": "",
          "type": "address"
        }
      ],
      "stateMutability": "view",
      "type": "function",
      "constant": true
    },
    {
      "inputs": [],
      "name": "revealEndTime",
      "outputs": [
        {
          "internalType": "uint256",
          "name": "",
          "type": "uint256"
        }
      ],
      "stateMutability": "view",
      "type": "function",
      "constant": true
    },
    {
      "inputs": [
        {
          "internalType": "bytes32",
          "name": "_hash",
          "type": "bytes32"
        }
      ],
      "name": "bid",
      "outputs": [],
      "stateMutability": "nonpayable",
      "type": "function"
    },
    {
      "inputs": [],
      "name": "getBid",
      "outputs": [
        {
          "internalType": "bytes32",
          "name": "",
          "type": "bytes32"
        }
      ],
      "stateMutability": "view",
      "type": "function",
      "constant": true
    },
    {
      "inputs": [],
      "name": "withdraw",
      "outputs": [],
      "stateMutability": "nonpayable",
      "type": "function"
    },
    {
      "inputs": [
        {
          "internalType": "bytes8",
          "name": "_nonce",
          "type": "bytes8"
        }
      ],
      "name": "reveal",
      "outputs": [],
      "stateMutability": "payable",
      "type": "function",
      "payable": true
    },
    {
      "inputs": [],
      "name": "endAuction",
      "outputs": [],
      "stateMutability": "nonpayable",
      "type": "function"
    },
    {
      "inputs": [
        {
          "internalType": "uint256",
          "name": "_secret",
          "type": "uint256"
        },
        {
          "internalType": "bytes8",
          "name": "_nonce",
          "type": "bytes8"
        }
      ],
      "name": "calculateHash",
      "outputs": [
        {
          "internalType": "bytes32",
          "name": "",
          "type": "bytes32"
        }
      ],
      "stateMutability": "pure",
      "type": "function",
      "constant": true
    }
  ],
  "bytecode": "0x60806040526000805460ff19169055611c206007553480156200002157600080fd5b506040516200100738038062001007833981810160405260808110156200004757600080fd5b81019080805160405193929190846401000000008211156200006857600080fd5b9083019060208201858111156200007e57600080fd5b82516401000000008111828201881017156200009957600080fd5b82525081516020918201929091019080838360005b83811015620000c8578181015183820152602001620000ae565b50505050905090810190601f168015620000f65780820380516001836020036101000a031916815260200191505b50604052602001805160405193929190846401000000008211156200011a57600080fd5b9083019060208201858111156200013057600080fd5b82516401000000008111828201881017156200014b57600080fd5b82525081516020918201929091019080838360005b838110156200017a57818101518382015260200162000160565b50505050905090810190601f168015620001a85780820380516001836020036101000a031916815260200191505b5060409081526020820151910151855191935091506200020f576040805162461bcd60e51b815260206004820152601460248201527f6e616d652063616e6e6f7420626520656d707479000000000000000000000000604482015290519081900360640190fd5b600083511162000266576040805162461bcd60e51b815260206004820152601b60248201527f6465736372697074696f6e2063616e6e6f7420626520656d7074790000000000604482015290519081900360640190fd5b6001600160c01b038110620002ad5760405162461bcd60e51b815260040180806020018281038252603081526020018062000fd76030913960400191505060405180910390fd5b8351620002c290600190602087019062000321565b508251620002d890600290602086019062000321565b50600380546001600160a01b039093166001600160a01b03199384168117909155600491909155600754428101600581905501600655600a805490921617905550620003c69050565b828054600181600116156101000203166002900490600052602060002090601f016020900481019282601f106200036457805160ff191683800117855562000394565b8280016001018555821562000394579182015b828111156200039457825182559160200191906001019062000377565b50620003a2929150620003a6565b5090565b620003c391905b80821115620003a25760008155600101620003ad565b90565b610c0180620003d66000396000f3fe6080604052600436106100e85760003560e01c80637284e4161161008a578063a24175ca11610059578063a24175ca146102b4578063d3a86386146102ee578063d49dc1d814610303578063fe67a54b14610318576100e8565b80637284e4161461022f5780638da5cb5b1461024457806391f9015714610275578063957bb1e01461028a576100e8565b806312fa6feb116100c657806312fa6feb146101b35780633ccfd60b146101dc5780634d91e1f7146101f35780635734e06814610208576100e8565b806306fdde03146100ed578063099a019d146101775780631022eccb1461019e575b600080fd5b3480156100f957600080fd5b5061010261032d565b6040805160208082528351818301528351919283929083019185019080838360005b8381101561013c578181015183820152602001610124565b50505050905090810190601f1680156101695780820380516001836020036101000a031916815260200191505b509250505060405180910390f35b34801561018357600080fd5b5061018c6103ba565b60408051918252519081900360200190f35b3480156101aa57600080fd5b5061018c6103cd565b3480156101bf57600080fd5b506101c86103d3565b604080519115158252519081900360200190f35b3480156101e857600080fd5b506101f16103dc565b005b3480156101ff57600080fd5b5061018c610488565b6101f16004803603602081101561021e57600080fd5b50356001600160c01b031916610493565b34801561023b57600080fd5b50610102610784565b34801561025057600080fd5b506102596107dc565b604080516001600160a01b039092168252519081900360200190f35b34801561028157600080fd5b506102596107eb565b34801561029657600080fd5b506101f1600480360360208110156102ad57600080fd5b50356107fa565b3480156102c057600080fd5b5061018c600480360360408110156102d757600080fd5b50803590602001356001600160c01b0319166108c9565b3480156102fa57600080fd5b5061018c6109dc565b34801561030f57600080fd5b5061018c6109e2565b34801561032457600080fd5b506101f16109e8565b60018054604080516020600284861615610100026000190190941693909304601f810184900484028201840190925281815292918301828280156103b25780601f10610387576101008083540402835291602001916103b2565b820191906000526020600020905b81548152906001019060200180831161039557829003601f168201915b505050505081565b3360009081526008602052604090205490565b60055481565b60005460ff1681565b600554338142106103ec57600080fd5b6003546001600160a01b03828116911614156104395760405162461bcd60e51b8152600401808060200182810382526027815260200180610ba56027913960400191505060405180910390fd5b3360008181526008602090815260408083208381556001018390558051928352517f26896c1eaa02304ec1c7dc5b5635a82ba155b70273072c78592884758a2d39ed9281900390910190a25050565b6001600160c01b0381565b600654338142106104a357600080fd5b6003546001600160a01b03828116911614156104f05760405162461bcd60e51b8152600401808060200182810382526027815260200180610ba56027913960400191505060405180910390fd5b6005548042116104ff57600080fd5b3360009081526008602052604090205461054a5760405162461bcd60e51b815260040180806020018281038252602d815260200180610b51602d913960400191505060405180910390fd5b60045434116105a0576040805162461bcd60e51b815260206004820152601b60248201527f796f757220626964206973206e6f74206869676820656e6f7567680000000000604482015290519081900360640190fd5b6001600160c01b0334106105fb576040805162461bcd60e51b815260206004820152601a60248201527f6269642065786365656473206d61782062696420616d6f756e74000000000000604482015290519081900360640190fd5b3360009081526008602052604090206001015415610657576040805162461bcd60e51b8152602060048201526014602482015273189a5908185b1c9958591e481c995d99585b195960621b604482015290519081900360640190fd5b600061066334866108c9565b3360009081526008602052604090205490915081146106b35760405162461bcd60e51b8152600401808060200182810382526027815260200180610b7e6027913960400191505060405180910390fd5b600a80546001600160a01b03166000818152600860209081526040808320600190810154346004819055338087529584902090920182905586546001600160a01b0319168517909655815190815290517ff254aace0ef98d6ac1a0d84c95648f8e3f7a1881dbb43393709ecd004b00f103929181900390910190a26003546001600160a01b0382811691161461077b576040516001600160a01b0382169083156108fc029084906000818181858888f19350505050158015610779573d6000803e3d6000fd5b505b50505050505050565b6002805460408051602060018416156101000260001901909316849004601f810184900484028201840190925281815292918301828280156103b25780601f10610387576101008083540402835291602001916103b2565b6003546001600160a01b031681565b600a546001600160a01b031681565b6005543381421061080a57600080fd5b6003546001600160a01b03828116911614156108575760405162461bcd60e51b8152600401808060200182810382526027815260200180610ba56027913960400191505060405180910390fd5b61085f610b39565b506040805180820182528481526000602080830182815233808452600883529285902084518155905160019091015583518781529351929391927f26896c1eaa02304ec1c7dc5b5635a82ba155b70273072c78592884758a2d39ed9281900390910190a250505050565b60006001600160c01b038310610926576040805162461bcd60e51b815260206004820152601a60248201527f6269642065786365656473206d61782062696420616d6f756e74000000000000604482015290519081900360640190fd5b6040805184821b60c085901c17602080830182905283518084038201815292840193849052825191936002939290918291908401908083835b6020831061097e5780518252601f19909201916020918201910161095f565b51815160209384036101000a60001901801990921691161790526040519190930194509192505080830381855afa1580156109bd573d6000803e3d6000fd5b5050506040513d60208110156109d257600080fd5b5051949350505050565b60045481565b60065481565b6006548042116109f757600080fd5b60005460ff1615610a47576040805162461bcd60e51b8152602060048201526015602482015274185d58dd1a5bdb88185b1c9958591e48195b991959605a1b604482015290519081900360640190fd5b6000805460ff19166001179055600354600a546001600160a01b03908116911614610af257600a5460045460408051918252516001600160a01b03909216917fdaec4582d5d9595688c8c98545fdd1c696d41c6aeaeb636737e84ed2f5c00eda9181900360200190a26003546004546040516001600160a01b039092169181156108fc0291906000818181858888f19350505050158015610aec573d6000803e3d6000fd5b50610b36565b600354604080516000815290516001600160a01b03909216917fdaec4582d5d9595688c8c98545fdd1c696d41c6aeaeb636737e84ed2f5c00eda9181900360200190a25b50565b60408051808201909152600080825260208201529056fe796f75206d75737420686176652062696464656420647572696e67207468652062696464696e672073746167656569746865722062696420616d6f756e74206f72206e6f6e636520697320696e636f72726563746f776e65722063616e6e6f7420706172746963697061746520696e207468652061756374696f6ea2646970667358221220797b718b7456d147722fe0c5242227b5f59bb40b065bab025f650b646cc219f864736f6c634300060600336d696e696d756d206269642063616e6e6f7420626520686967686572207468616e206d61782062696420616d6f756e74",
  "source": "pragma solidity ^0.6.1;\r\n\r\ncontract BlindAuction {\r\n    // uint256 => 256 bits\r\n    // 8 bytes nonce => 64 bits\r\n    // max bid => 192 bits\r\n    uint256 constant public MAX_BID = 2**192 - 1;\r\n    bool public ended = false;\r\n    \r\n    string public name;\r\n    string public description;\r\n    address payable public owner;\r\n    uint256 public minimumBid;\r\n    uint256 public biddingEndTime;\r\n    uint256 public revealEndTime;\r\n    uint256 stageDuration = 2 hours; // for deployment\r\n    //uint256 stageDuration = 5 minutes; // for presentation\r\n    //uint256 stageDuration = 5; // for testing\r\n    \r\n    struct BlindBid {\r\n        bytes32 hash;\r\n        uint secret;\r\n    }\r\n    mapping (address => BlindBid) bids;\r\n    // Allowed withdrawals of previous bids\r\n    mapping (address => uint) pendingReturns;\r\n    address payable public highestBidder;\r\n    \r\n    modifier onlyBefore(uint _time, address _sender) { \r\n        require(now < _time);\r\n        require(_sender != owner, \"owner cannot participate in the auction\");\r\n        _;\r\n    }\r\n    modifier onlyAfter(uint _time) { \r\n        require(now > _time); \r\n        _;\r\n    }\r\n    \r\n    constructor(\r\n        string memory _name,\r\n        string memory _description,\r\n        address payable _owner,\r\n        uint256 _minimum_bid) public {\r\n            require(bytes(_name).length > 0, \"name cannot be empty\");\r\n            require(bytes(_description).length > 0, \"description cannot be empty\");\r\n            require(_minimum_bid < MAX_BID, \"minimum bid cannot be higher than max bid amount\");\r\n            name = _name;\r\n            description = _description;\r\n            owner = _owner;\r\n            minimumBid = _minimum_bid;\r\n            biddingEndTime = now + stageDuration;\r\n            revealEndTime = biddingEndTime + stageDuration;\r\n            highestBidder = _owner;\r\n    }\r\n    \r\n    function bid(bytes32 _hash) external onlyBefore(biddingEndTime, msg.sender) {\r\n        BlindBid memory _bid = BlindBid(_hash, 0);\r\n        bids[msg.sender] = _bid;\r\n        emit Bid(msg.sender, _hash);\r\n    }\r\n    \r\n    function getBid() external view returns(bytes32) {\r\n        return bids[msg.sender].hash;\r\n    }\r\n    \r\n    function withdraw() external onlyBefore(biddingEndTime, msg.sender) {\r\n        delete bids[msg.sender];\r\n        emit Bid(msg.sender, 0);\r\n    }\r\n    \r\n    function reveal(bytes8 _nonce) payable external \r\n        onlyBefore(revealEndTime, msg.sender)\r\n        onlyAfter(biddingEndTime) {\r\n            // checks\r\n            require(bids[msg.sender].hash != 0, \"you must have bidded during the bidding stage\");\r\n            require(msg.value > minimumBid, \"your bid is not high enough\");\r\n            require(msg.value < MAX_BID, \"bid exceeds max bid amount\");\r\n            require(bids[msg.sender].secret == 0, \"bid already revealed\");\r\n            bytes32 hash = calculateHash(msg.value, _nonce);\r\n            require(hash == bids[msg.sender].hash, \"either bid amount or nonce is incorrect\");\r\n            // effects\r\n            uint256 refund = bids[highestBidder].secret;\r\n            address payable prevHighestBidder = highestBidder;\r\n            minimumBid = msg.value;\r\n            bids[msg.sender].secret = msg.value;\r\n            highestBidder = msg.sender;\r\n            // interactions\r\n            emit Reveal(msg.sender, msg.value);\r\n            if (prevHighestBidder != owner) {\r\n                prevHighestBidder.transfer(refund);\r\n            }\r\n    }\r\n    \r\n    function endAuction() external onlyAfter(revealEndTime) {\r\n        require(ended == false, \"auction already ended\");\r\n        ended = true;\r\n        if (highestBidder != owner) {\r\n            emit AuctionEnded(highestBidder, minimumBid);\r\n            owner.transfer(minimumBid);\r\n        } else {\r\n            emit AuctionEnded(owner, 0);\r\n        }\r\n    }\r\n    \r\n    function calculateHash(uint256 _secret, bytes8 _nonce) public pure returns(bytes32){\r\n        require(_secret < MAX_BID, \"bid exceeds max bid amount\");\r\n        bytes32 concat = bytes32(_secret << 64 | uint64(_nonce));\r\n        return sha256(abi.encodePacked(concat));\r\n    }\r\n    \r\n    event Bid(\r\n        address indexed _bidder,\r\n        bytes32 _hash\r\n    );\r\n    \r\n    event Reveal(\r\n        address indexed _bidder,\r\n        uint256 _value\r\n    );\r\n    \r\n    event AuctionEnded(\r\n        address indexed _bidder,\r\n        uint256 _value\r\n    );\r\n\r\n}",
  "sourcePath": "C:\\Users\\cowBman\\OneDrive\\Documents\\ISTD\\Blockchain\\DApp\\blind_auction\\src\\contracts\\BlindAuction.sol",
  "compiler": {
    "name": "solc",
    "version": "0.6.6+commit.6c089d02.Emscripten.clang"
  },
  "schemaVersion": "3.0.23",
  "updatedAt": "2020-04-22T15:52:47.791Z",
  "networkType": "ethereum",
  "devdoc": {
    "methods": {}
  },
  "userdoc": {
    "methods": {}
  }
}