{
  "contractName": "Payment",
  "abi": [
    {
      "inputs": [],
      "stateMutability": "nonpayable",
      "type": "constructor"
    },
    {
      "inputs": [],
      "name": "FEE",
      "outputs": [
        {
          "internalType": "uint256",
          "name": "",
          "type": "uint256"
        }
      ],
      "stateMutability": "view",
      "type": "function",
      "constant": true
    },
    {
      "inputs": [],
      "name": "owner",
      "outputs": [
        {
          "internalType": "address payable",
          "name": "",
          "type": "address"
        }
      ],
      "stateMutability": "view",
      "type": "function",
      "constant": true
    },
    {
      "inputs": [],
      "name": "pay",
      "outputs": [],
      "stateMutability": "payable",
      "type": "function",
      "payable": true
    },
    {
      "inputs": [],
      "name": "withdraw",
      "outputs": [],
      "stateMutability": "nonpayable",
      "type": "function"
    }
  ],
  "bytecode": "0x608060405234801561001057600080fd5b50600080546001600160a01b031916331790556101f8806100326000396000f3fe60806040526004361061003f5760003560e01c80631b9265b8146100445780633ccfd60b1461004e5780638da5cb5b14610063578063c57981b514610094575b600080fd5b61004c6100bb565b005b34801561005a57600080fd5b5061004c610109565b34801561006f57600080fd5b506100786101a7565b604080516001600160a01b039092168252519081900360200190f35b3480156100a057600080fd5b506100a96101b6565b60408051918252519081900360200190f35b6706f05b59d3b200003414610107576040805162461bcd60e51b815260206004820152600d60248201526c696e636f72726563742066656560981b604482015290519081900360640190fd5b565b6000546001600160a01b03163314610168576040805162461bcd60e51b815260206004820152601760248201527f6f6e6c79206f776e65722063616e207769746864726177000000000000000000604482015290519081900360640190fd5b600080546040516001600160a01b0390911691906706f05b59d3b200009082818181858883f193505050501580156101a4573d6000803e3d6000fd5b50565b6000546001600160a01b031681565b6706f05b59d3b200008156fea2646970667358221220a64a78de89387873586fa65704570b23360e7d3158d6b95ef1a16b413957fab064736f6c63430006060033",
  "source": "pragma solidity ^0.6.1;\r\n\r\ncontract Payment {\r\n    uint constant public FEE = 500000000000000000; // 0.5 ether\r\n    \r\n    address payable public owner;\r\n\r\n    constructor() public {\r\n        owner = msg.sender;\r\n    }\r\n    \r\n    function pay() external payable {\r\n        require(msg.value==FEE, \"incorrect fee\");\r\n    }\r\n    \r\n    function withdraw() external {\r\n        require(msg.sender==owner, \"only owner can withdraw\");\r\n        owner.transfer(FEE);\r\n    }\r\n\r\n}",
  "sourcePath": "C:\\Users\\cowBman\\OneDrive\\Documents\\ISTD\\Blockchain\\DApp\\blind_auction\\src\\contracts\\Payment.sol",
  "compiler": {
    "name": "solc",
    "version": "0.6.6+commit.6c089d02.Emscripten.clang"
  },
  "schemaVersion": "3.0.23",
  "updatedAt": "2020-04-24T17:27:30.439Z",
  "networkType": "ethereum",
  "devdoc": {
    "methods": {}
  },
  "userdoc": {
    "methods": {}
  }
}